{
  "contracts/setPrice.sol": {
    "publicExternal": {
      "abi": [
        {
          "inputs": [],
          "name": "getprice",
          "outputs": [
            {
              "internalType": "uint256",
              "name": "",
              "type": "uint256"
            }
          ],
          "stateMutability": "view",
          "type": "function"
        },
        {
          "inputs": [
            {
              "internalType": "uint256",
              "name": "_price",
              "type": "uint256"
            }
          ],
          "name": "setPriceWithExternal",
          "outputs": [],
          "stateMutability": "nonpayable",
          "type": "function"
        },
        {
          "inputs": [
            {
              "internalType": "uint256",
              "name": "_price",
              "type": "uint256"
            }
          ],
          "name": "setPriceWithPublic",
          "outputs": [],
          "stateMutability": "nonpayable",
          "type": "function"
        }
      ],
      "evm": {
        "bytecode": {
          "linkReferences": {},
          "object": "608060405234801561001057600080fd5b50610575806100206000396000f3fe608060405234801561001057600080fd5b50600436106100415760003560e01c80630fcb5984146100465780632bb1c4b11461006457806398c1b19314610080575b600080fd5b61004e61009c565b60405161005b9190610449565b60405180910390f35b61007e60048036038101906100799190610495565b61012a565b005b61009a60048036038101906100959190610495565b6102ac565b005b60006100ca7f36db8e4470df8a18328dd0ffc74ce08b29f2730950b51888374e30958a6e5a1660001b61042d565b6100f67fdfe97bdc3a0f47a8eb5b9bb2212084fd7142efec5d38fd2a45a012376023e3d260001b61042d565b6101227fba98f77d42eeca6de0222d7930eaf8b9bb8cf2ce573be54d73a8378133a8a57360001b61042d565b600054905090565b6101567f290fc1c101cf5cc87ff24408abd602372a682456fe4c4842cfdad09ac0e77d2c60001b61042d565b6101827f54bc0afa9b07d08e45545f5f34c699d82df72caa705efcb7a0db2a36009b4b0060001b61042d565b6101ae7fa6907c95beaa2faa8d21662b4a7ffd4401bc058678a45f54398d67dd3f3510f160001b61042d565b6101da7fef26ce2a5394fc09f9ff5279d09f14dafe214245aed9cc7476f6353135b164b960001b61042d565b806000540361021e576040517f08c379a00000000000000000000000000000000000000000000000000000000081526004016102159061051f565b60405180910390fd5b61024a7fdee9ab2ac9f5c337f88dc54d1eba37a80edc79c9fd591a00e3c0c16a02386dfe60001b61042d565b6102767f5b9be4115c27de43c87ac32f904774b0c74c767a6f37ae4f4a0581cf9b11fe9f60001b61042d565b6102a27ffbc97431c350d12e6e8dbe250e5ce576e544d40c97bede42ff27daa747b310fc60001b61042d565b8060008190555050565b6102d87fb4ae55bbd657c3e1c76e7da3399e6b6998d4a48f07796433ef34d98449c1660260001b61042d565b6103047f26d6f15263a3d6b484806c497e1aecb9f65414bfaf14c19157005881d607df1260001b61042d565b61032f7e0d46d284aa0294278ff9e5b10183f038701ffd9d6b1d86196de7c10272676960001b61042d565b61035b7f577056b56207245b6132841dd5d8443052fe2c7cd0a9d601ae8a3bfd22a6935060001b61042d565b806000540361039f576040517f08c379a00000000000000000000000000000000000000000000000000000000081526004016103969061051f565b60405180910390fd5b6103cb7fc3d76e55f5d6fcba9a705c58f139e8a8ca9b854080bef11ea715259dfb2f853e60001b61042d565b6103f77fbfdbe5314217aace1eee9fbfc467e268a2e2d17697ec702aed27d7143f25063c60001b61042d565b6104237f5e10fb1097d7708090106da612b14aeb09b3af6a342e3bfdd995fac0d9e4579060001b61042d565b8060008190555050565b50565b6000819050919050565b61044381610430565b82525050565b600060208201905061045e600083018461043a565b92915050565b600080fd5b61047281610430565b811461047d57600080fd5b50565b60008135905061048f81610469565b92915050565b6000602082840312156104ab576104aa610464565b5b60006104b984828501610480565b91505092915050565b600082825260208201905092915050565b7f436f6d70617269736f6e3a20507269636520697320616c726561647920736574600082015250565b60006105096020836104c2565b9150610514826104d3565b602082019050919050565b60006020820190508181036000830152610538816104fc565b905091905056fea26469706673582212200786b17bf1a8b3ce83248fbe7c07be5825235aa3e9067f76b6821eaba50e859a64736f6c634300080d0033",
          "opcodes": "PUSH1 0x80 PUSH1 0x40 MSTORE CALLVALUE DUP1 ISZERO PUSH2 0x10 JUMPI PUSH1 0x0 DUP1 REVERT JUMPDEST POP PUSH2 0x575 DUP1 PUSH2 0x20 PUSH1 0x0 CODECOPY PUSH1 0x0 RETURN INVALID PUSH1 0x80 PUSH1 0x40 MSTORE CALLVALUE DUP1 ISZERO PUSH2 0x10 JUMPI PUSH1 0x0 DUP1 REVERT JUMPDEST POP PUSH1 0x4 CALLDATASIZE LT PUSH2 0x41 JUMPI PUSH1 0x0 CALLDATALOAD PUSH1 0xE0 SHR DUP1 PUSH4 0xFCB5984 EQ PUSH2 0x46 JUMPI DUP1 PUSH4 0x2BB1C4B1 EQ PUSH2 0x64 JUMPI DUP1 PUSH4 0x98C1B193 EQ PUSH2 0x80 JUMPI JUMPDEST PUSH1 0x0 DUP1 REVERT JUMPDEST PUSH2 0x4E PUSH2 0x9C JUMP JUMPDEST PUSH1 0x40 MLOAD PUSH2 0x5B SWAP2 SWAP1 PUSH2 0x449 JUMP JUMPDEST PUSH1 0x40 MLOAD DUP1 SWAP2 SUB SWAP1 RETURN JUMPDEST PUSH2 0x7E PUSH1 0x4 DUP1 CALLDATASIZE SUB DUP2 ADD SWAP1 PUSH2 0x79 SWAP2 SWAP1 PUSH2 0x495 JUMP JUMPDEST PUSH2 0x12A JUMP JUMPDEST STOP JUMPDEST PUSH2 0x9A PUSH1 0x4 DUP1 CALLDATASIZE SUB DUP2 ADD SWAP1 PUSH2 0x95 SWAP2 SWAP1 PUSH2 0x495 JUMP JUMPDEST PUSH2 0x2AC JUMP JUMPDEST STOP JUMPDEST PUSH1 0x0 PUSH2 0xCA PUSH32 0x36DB8E4470DF8A18328DD0FFC74CE08B29F2730950B51888374E30958A6E5A16 PUSH1 0x0 SHL PUSH2 0x42D JUMP JUMPDEST PUSH2 0xF6 PUSH32 0xDFE97BDC3A0F47A8EB5B9BB2212084FD7142EFEC5D38FD2A45A012376023E3D2 PUSH1 0x0 SHL PUSH2 0x42D JUMP JUMPDEST PUSH2 0x122 PUSH32 0xBA98F77D42EECA6DE0222D7930EAF8B9BB8CF2CE573BE54D73A8378133A8A573 PUSH1 0x0 SHL PUSH2 0x42D JUMP JUMPDEST PUSH1 0x0 SLOAD SWAP1 POP SWAP1 JUMP JUMPDEST PUSH2 0x156 PUSH32 0x290FC1C101CF5CC87FF24408ABD602372A682456FE4C4842CFDAD09AC0E77D2C PUSH1 0x0 SHL PUSH2 0x42D JUMP JUMPDEST PUSH2 0x182 PUSH32 0x54BC0AFA9B07D08E45545F5F34C699D82DF72CAA705EFCB7A0DB2A36009B4B00 PUSH1 0x0 SHL PUSH2 0x42D JUMP JUMPDEST PUSH2 0x1AE PUSH32 0xA6907C95BEAA2FAA8D21662B4A7FFD4401BC058678A45F54398D67DD3F3510F1 PUSH1 0x0 SHL PUSH2 0x42D JUMP JUMPDEST PUSH2 0x1DA PUSH32 0xEF26CE2A5394FC09F9FF5279D09F14DAFE214245AED9CC7476F6353135B164B9 PUSH1 0x0 SHL PUSH2 0x42D JUMP JUMPDEST DUP1 PUSH1 0x0 SLOAD SUB PUSH2 0x21E JUMPI PUSH1 0x40 MLOAD PUSH32 0x8C379A000000000000000000000000000000000000000000000000000000000 DUP2 MSTORE PUSH1 0x4 ADD PUSH2 0x215 SWAP1 PUSH2 0x51F JUMP JUMPDEST PUSH1 0x40 MLOAD DUP1 SWAP2 SUB SWAP1 REVERT JUMPDEST PUSH2 0x24A PUSH32 0xDEE9AB2AC9F5C337F88DC54D1EBA37A80EDC79C9FD591A00E3C0C16A02386DFE PUSH1 0x0 SHL PUSH2 0x42D JUMP JUMPDEST PUSH2 0x276 PUSH32 0x5B9BE4115C27DE43C87AC32F904774B0C74C767A6F37AE4F4A0581CF9B11FE9F PUSH1 0x0 SHL PUSH2 0x42D JUMP JUMPDEST PUSH2 0x2A2 PUSH32 0xFBC97431C350D12E6E8DBE250E5CE576E544D40C97BEDE42FF27DAA747B310FC PUSH1 0x0 SHL PUSH2 0x42D JUMP JUMPDEST DUP1 PUSH1 0x0 DUP2 SWAP1 SSTORE POP POP JUMP JUMPDEST PUSH2 0x2D8 PUSH32 0xB4AE55BBD657C3E1C76E7DA3399E6B6998D4A48F07796433EF34D98449C16602 PUSH1 0x0 SHL PUSH2 0x42D JUMP JUMPDEST PUSH2 0x304 PUSH32 0x26D6F15263A3D6B484806C497E1AECB9F65414BFAF14C19157005881D607DF12 PUSH1 0x0 SHL PUSH2 0x42D JUMP JUMPDEST PUSH2 0x32F PUSH31 0xD46D284AA0294278FF9E5B10183F038701FFD9D6B1D86196DE7C102726769 PUSH1 0x0 SHL PUSH2 0x42D JUMP JUMPDEST PUSH2 0x35B PUSH32 0x577056B56207245B6132841DD5D8443052FE2C7CD0A9D601AE8A3BFD22A69350 PUSH1 0x0 SHL PUSH2 0x42D JUMP JUMPDEST DUP1 PUSH1 0x0 SLOAD SUB PUSH2 0x39F JUMPI PUSH1 0x40 MLOAD PUSH32 0x8C379A000000000000000000000000000000000000000000000000000000000 DUP2 MSTORE PUSH1 0x4 ADD PUSH2 0x396 SWAP1 PUSH2 0x51F JUMP JUMPDEST PUSH1 0x40 MLOAD DUP1 SWAP2 SUB SWAP1 REVERT JUMPDEST PUSH2 0x3CB PUSH32 0xC3D76E55F5D6FCBA9A705C58F139E8A8CA9B854080BEF11EA715259DFB2F853E PUSH1 0x0 SHL PUSH2 0x42D JUMP JUMPDEST PUSH2 0x3F7 PUSH32 0xBFDBE5314217AACE1EEE9FBFC467E268A2E2D17697EC702AED27D7143F25063C PUSH1 0x0 SHL PUSH2 0x42D JUMP JUMPDEST PUSH2 0x423 PUSH32 0x5E10FB1097D7708090106DA612B14AEB09B3AF6A342E3BFDD995FAC0D9E45790 PUSH1 0x0 SHL PUSH2 0x42D JUMP JUMPDEST DUP1 PUSH1 0x0 DUP2 SWAP1 SSTORE POP POP JUMP JUMPDEST POP JUMP JUMPDEST PUSH1 0x0 DUP2 SWAP1 POP SWAP2 SWAP1 POP JUMP JUMPDEST PUSH2 0x443 DUP2 PUSH2 0x430 JUMP JUMPDEST DUP3 MSTORE POP POP JUMP JUMPDEST PUSH1 0x0 PUSH1 0x20 DUP3 ADD SWAP1 POP PUSH2 0x45E PUSH1 0x0 DUP4 ADD DUP5 PUSH2 0x43A JUMP JUMPDEST SWAP3 SWAP2 POP POP JUMP JUMPDEST PUSH1 0x0 DUP1 REVERT JUMPDEST PUSH2 0x472 DUP2 PUSH2 0x430 JUMP JUMPDEST DUP2 EQ PUSH2 0x47D JUMPI PUSH1 0x0 DUP1 REVERT JUMPDEST POP JUMP JUMPDEST PUSH1 0x0 DUP2 CALLDATALOAD SWAP1 POP PUSH2 0x48F DUP2 PUSH2 0x469 JUMP JUMPDEST SWAP3 SWAP2 POP POP JUMP JUMPDEST PUSH1 0x0 PUSH1 0x20 DUP3 DUP5 SUB SLT ISZERO PUSH2 0x4AB JUMPI PUSH2 0x4AA PUSH2 0x464 JUMP JUMPDEST JUMPDEST PUSH1 0x0 PUSH2 0x4B9 DUP5 DUP3 DUP6 ADD PUSH2 0x480 JUMP JUMPDEST SWAP2 POP POP SWAP3 SWAP2 POP POP JUMP JUMPDEST PUSH1 0x0 DUP3 DUP3 MSTORE PUSH1 0x20 DUP3 ADD SWAP1 POP SWAP3 SWAP2 POP POP JUMP JUMPDEST PUSH32 0x436F6D70617269736F6E3A20507269636520697320616C726561647920736574 PUSH1 0x0 DUP3 ADD MSTORE POP JUMP JUMPDEST PUSH1 0x0 PUSH2 0x509 PUSH1 0x20 DUP4 PUSH2 0x4C2 JUMP JUMPDEST SWAP2 POP PUSH2 0x514 DUP3 PUSH2 0x4D3 JUMP JUMPDEST PUSH1 0x20 DUP3 ADD SWAP1 POP SWAP2 SWAP1 POP JUMP JUMPDEST PUSH1 0x0 PUSH1 0x20 DUP3 ADD SWAP1 POP DUP2 DUP2 SUB PUSH1 0x0 DUP4 ADD MSTORE PUSH2 0x538 DUP2 PUSH2 0x4FC JUMP JUMPDEST SWAP1 POP SWAP2 SWAP1 POP JUMP INVALID LOG2 PUSH5 0x6970667358 0x22 SLT KECCAK256 SMOD DUP7 0xB1 PUSH28 0xF1A8B3CE83248FBE7C07BE5825235AA3E9067F76B6821EABA50E859A PUSH5 0x736F6C6343 STOP ADDMOD 0xD STOP CALLER "
        },
        "methodIdentifiers": {
          "getprice()": "0fcb5984",
          "setPriceWithExternal(uint256)": "98c1b193",
          "setPriceWithPublic(uint256)": "2bb1c4b1"
        }
      }
    }
  }
}