{
  "_format": "hh-sol-artifact-1",
  "contractName": "Mycontract",
  "sourceName": "contracts/mycontract.sol",
  "abi": [
    {
      "inputs": [
        {
          "internalType": "string",
          "name": "name",
          "type": "string"
        }
      ],
      "stateMutability": "nonpayable",
      "type": "constructor"
    },
    {
      "inputs": [
        {
          "internalType": "string",
          "name": "name",
          "type": "string"
        }
      ],
      "name": "changeName",
      "outputs": [],
      "stateMutability": "nonpayable",
      "type": "function"
    },
    {
      "inputs": [],
      "name": "getName",
      "outputs": [
        {
          "internalType": "string",
          "name": "",
          "type": "string"
        }
      ],
      "stateMutability": "view",
      "type": "function"
    }
  ],
  "bytecode": "0x60806040523480156200001157600080fd5b50604051620009ba380380620009ba833981810160405281019062000037919062000343565b6200006b7f3ea0ff729a26394ed9ffc0ae3bde6cad1e48ddeffe1495a94ddb7fb4a3e53ed660001b620000f360201b60201c565b6200009f7f91d326efae93ca3dccb5c1008b367e81ee4f4d25c501a7ba3672079be015cf9560001b620000f360201b60201c565b620000d37f41df545da3c262b0c7f2331d4cbf2b3565e9e564d3aea1582334398b55b7ea9f60001b620000f360201b60201c565b8060009080519060200190620000eb929190620000f6565b5050620003f8565b50565b8280546200010490620003c3565b90600052602060002090601f01602090048101928262000128576000855562000174565b82601f106200014357805160ff191683800117855562000174565b8280016001018555821562000174579182015b828111156200017357825182559160200191906001019062000156565b5b50905062000183919062000187565b5090565b5b80821115620001a257600081600090555060010162000188565b5090565b6000604051905090565b600080fd5b600080fd5b600080fd5b600080fd5b6000601f19601f8301169050919050565b7f4e487b7100000000000000000000000000000000000000000000000000000000600052604160045260246000fd5b6200020f82620001c4565b810181811067ffffffffffffffff82111715620002315762000230620001d5565b5b80604052505050565b600062000246620001a6565b905062000254828262000204565b919050565b600067ffffffffffffffff821115620002775762000276620001d5565b5b6200028282620001c4565b9050602081019050919050565b60005b83811015620002af57808201518184015260208101905062000292565b83811115620002bf576000848401525b50505050565b6000620002dc620002d68462000259565b6200023a565b905082815260208101848484011115620002fb57620002fa620001bf565b5b620003088482856200028f565b509392505050565b600082601f830112620003285762000327620001ba565b5b81516200033a848260208601620002c5565b91505092915050565b6000602082840312156200035c576200035b620001b0565b5b600082015167ffffffffffffffff8111156200037d576200037c620001b5565b5b6200038b8482850162000310565b91505092915050565b7f4e487b7100000000000000000000000000000000000000000000000000000000600052602260045260246000fd5b60006002820490506001821680620003dc57607f821691505b602082108103620003f257620003f162000394565b5b50919050565b6105b280620004086000396000f3fe608060405234801561001057600080fd5b50600436106100365760003560e01c806317d7de7c1461003b5780635353a2d814610059575b600080fd5b610043610075565b6040516100509190610368565b60405180910390f35b610073600480360381019061006e91906104d3565b61018b565b005b60606100a37f1b771075842d638cf9d91d70aa3a6cda01cb211f4197ed33810699af42bfc44f60001b610229565b6100cf7f80655c405e67c32018bff569937a7a1eb7fffca838ead7b288a40d0119f31abe60001b610229565b6100fb7f764ba85f3e97e7ec36f9e15b64f729c8e06229ffe5a9b11aaf09831b0f6f8f8660001b610229565b600080546101089061054b565b80601f01602080910402602001604051908101604052809291908181526020018280546101349061054b565b80156101815780601f1061015657610100808354040283529160200191610181565b820191906000526020600020905b81548152906001019060200180831161016457829003601f168201915b5050505050905090565b6101b77fd8a2f0f7af6c2d74904a4f88615f08f54909d145e21711a8a97ccacc60be538360001b610229565b6101e37fbe7988c65ca3be597a67b3e920af902c46c5d569187234ec7e95cdbaa1d6a8f660001b610229565b61020f7fdf98a960d8ab7ca120722829a11add81e78db7ef976213378ed0a4a30ce29df760001b610229565b806000908051906020019061022592919061022c565b5050565b50565b8280546102389061054b565b90600052602060002090601f01602090048101928261025a57600085556102a1565b82601f1061027357805160ff19168380011785556102a1565b828001600101855582156102a1579182015b828111156102a0578251825591602001919060010190610285565b5b5090506102ae91906102b2565b5090565b5b808211156102cb5760008160009055506001016102b3565b5090565b600081519050919050565b600082825260208201905092915050565b60005b838110156103095780820151818401526020810190506102ee565b83811115610318576000848401525b50505050565b6000601f19601f8301169050919050565b600061033a826102cf565b61034481856102da565b93506103548185602086016102eb565b61035d8161031e565b840191505092915050565b60006020820190508181036000830152610382818461032f565b905092915050565b6000604051905090565b600080fd5b600080fd5b600080fd5b600080fd5b7f4e487b7100000000000000000000000000000000000000000000000000000000600052604160045260246000fd5b6103e08261031e565b810181811067ffffffffffffffff821117156103ff576103fe6103a8565b5b80604052505050565b600061041261038a565b905061041e82826103d7565b919050565b600067ffffffffffffffff82111561043e5761043d6103a8565b5b6104478261031e565b9050602081019050919050565b82818337600083830152505050565b600061047661047184610423565b610408565b905082815260208101848484011115610492576104916103a3565b5b61049d848285610454565b509392505050565b600082601f8301126104ba576104b961039e565b5b81356104ca848260208601610463565b91505092915050565b6000602082840312156104e9576104e8610394565b5b600082013567ffffffffffffffff81111561050757610506610399565b5b610513848285016104a5565b91505092915050565b7f4e487b7100000000000000000000000000000000000000000000000000000000600052602260045260246000fd5b6000600282049050600182168061056357607f821691505b6020821081036105765761057561051c565b5b5091905056fea2646970667358221220409074a699449378eb01760ba6a7f5c09ec0b2950b8cd4317a61dedbc1436cab64736f6c634300080d0033",
  "linkReferences": {},
  "deployedLinkReferences": {}
}