{
  "_format": "hh-sol-artifact-1",
  "contractName": "publicExternal",
  "sourceName": "contracts/setPrice.sol",
  "abi": [
    {
      "inputs": [],
      "name": "getprice",
      "outputs": [
        {
          "internalType": "uint256",
          "name": "",
          "type": "uint256"
        }
      ],
      "stateMutability": "view",
      "type": "function"
    },
    {
      "inputs": [
        {
          "internalType": "uint256",
          "name": "_price",
          "type": "uint256"
        }
      ],
      "name": "setPriceWithExternal",
      "outputs": [],
      "stateMutability": "nonpayable",
      "type": "function"
    },
    {
      "inputs": [
        {
          "internalType": "uint256",
          "name": "_price",
          "type": "uint256"
        }
      ],
      "name": "setPriceWithPublic",
      "outputs": [],
      "stateMutability": "nonpayable",
      "type": "function"
    }
  ],
  "bytecode": "0x608060405234801561001057600080fd5b50610575806100206000396000f3fe608060405234801561001057600080fd5b50600436106100415760003560e01c80630fcb5984146100465780632bb1c4b11461006457806398c1b19314610080575b600080fd5b61004e61009c565b60405161005b9190610449565b60405180910390f35b61007e60048036038101906100799190610495565b61012a565b005b61009a60048036038101906100959190610495565b6102ac565b005b60006100ca7f36db8e4470df8a18328dd0ffc74ce08b29f2730950b51888374e30958a6e5a1660001b61042d565b6100f67fdfe97bdc3a0f47a8eb5b9bb2212084fd7142efec5d38fd2a45a012376023e3d260001b61042d565b6101227fba98f77d42eeca6de0222d7930eaf8b9bb8cf2ce573be54d73a8378133a8a57360001b61042d565b600054905090565b6101567f290fc1c101cf5cc87ff24408abd602372a682456fe4c4842cfdad09ac0e77d2c60001b61042d565b6101827f54bc0afa9b07d08e45545f5f34c699d82df72caa705efcb7a0db2a36009b4b0060001b61042d565b6101ae7fa6907c95beaa2faa8d21662b4a7ffd4401bc058678a45f54398d67dd3f3510f160001b61042d565b6101da7fef26ce2a5394fc09f9ff5279d09f14dafe214245aed9cc7476f6353135b164b960001b61042d565b806000540361021e576040517f08c379a00000000000000000000000000000000000000000000000000000000081526004016102159061051f565b60405180910390fd5b61024a7fdee9ab2ac9f5c337f88dc54d1eba37a80edc79c9fd591a00e3c0c16a02386dfe60001b61042d565b6102767f5b9be4115c27de43c87ac32f904774b0c74c767a6f37ae4f4a0581cf9b11fe9f60001b61042d565b6102a27ffbc97431c350d12e6e8dbe250e5ce576e544d40c97bede42ff27daa747b310fc60001b61042d565b8060008190555050565b6102d87fb4ae55bbd657c3e1c76e7da3399e6b6998d4a48f07796433ef34d98449c1660260001b61042d565b6103047f26d6f15263a3d6b484806c497e1aecb9f65414bfaf14c19157005881d607df1260001b61042d565b61032f7e0d46d284aa0294278ff9e5b10183f038701ffd9d6b1d86196de7c10272676960001b61042d565b61035b7f577056b56207245b6132841dd5d8443052fe2c7cd0a9d601ae8a3bfd22a6935060001b61042d565b806000540361039f576040517f08c379a00000000000000000000000000000000000000000000000000000000081526004016103969061051f565b60405180910390fd5b6103cb7fc3d76e55f5d6fcba9a705c58f139e8a8ca9b854080bef11ea715259dfb2f853e60001b61042d565b6103f77fbfdbe5314217aace1eee9fbfc467e268a2e2d17697ec702aed27d7143f25063c60001b61042d565b6104237f5e10fb1097d7708090106da612b14aeb09b3af6a342e3bfdd995fac0d9e4579060001b61042d565b8060008190555050565b50565b6000819050919050565b61044381610430565b82525050565b600060208201905061045e600083018461043a565b92915050565b600080fd5b61047281610430565b811461047d57600080fd5b50565b60008135905061048f81610469565b92915050565b6000602082840312156104ab576104aa610464565b5b60006104b984828501610480565b91505092915050565b600082825260208201905092915050565b7f436f6d70617269736f6e3a20507269636520697320616c726561647920736574600082015250565b60006105096020836104c2565b9150610514826104d3565b602082019050919050565b60006020820190508181036000830152610538816104fc565b905091905056fea26469706673582212200786b17bf1a8b3ce83248fbe7c07be5825235aa3e9067f76b6821eaba50e859a64736f6c634300080d0033",
  "linkReferences": {},
  "deployedLinkReferences": {}
}